:020000040800F2
:10000000008000202D1500087D1400087F140008D2
:1000100000000000000000000000000000000000E0
:100020000000000000000000000000008114000833
:100030000000000000000000831400088514000880
:100040007D150008000000007D1500087D150008E2
:100050007D1500087D1500087D1500088D14000829
:10006000000000007D1500087D1500087D150008C2
:100070007D1500087D1500087D15000800000000B2
:100080007D150008AD140008BD140008CD1400084B
:10009000F91400087D1500087D1500087D1500087D
:1000A0007D1500087D1500087D150008091500085C
:0C00B000191500087D1500080000000074
:1000BC0010B5064C2378002B07D1054B002B02D032
:1000CC00044800E000BF0123237010BD0C00002089
:1000DC00000000009C300008044B10B5002B03D02E
:1000EC000349044800E000BF10BDC04600000000FA
:1000FC00100000209C30000802B4714649084900E9
:10010C00095649008E4402BC7047C04602B4714681
:10011C0049084900095C49008E4402BC7047C0463E
:10012C00002243088B4274D303098B425FD3030A2A
:10013C008B4244D3030B8B4228D3030C8B420DD33D
:10014C00FF22090212BA030C8B4202D312120902CB
:10015C0065D0030B8B4219D300E0090AC30B8B4209
:10016C0001D3CB03C01A5241830B8B4201D38B03B7
:10017C00C01A5241430B8B4201D34B03C01A52415C
:10018C00030B8B4201D30B03C01A5241C30A8B429F
:10019C0001D3CB02C01A5241830A8B4201D38B028A
:1001AC00C01A5241430A8B4201D34B02C01A52412E
:1001BC00030A8B4201D30B02C01A5241CDD2C309A0
:1001CC008B4201D3CB01C01A524183098B4201D31C
:1001DC008B01C01A524143098B4201D34B01C01A07
:1001EC00524103098B4201D30B01C01A5241C3087F
:1001FC008B4201D3CB00C01A524183088B4201D3EE
:10020C008B00C01A524143088B4201D34B00C01AD9
:10021C005241411A00D20146524110467047FFE745
:10022C0001B5002000F006F802BDC0460029F7D049
:10023C0076E770477047C0468446081C6146FFE766
:10024C001FB500F0CBF9002801D40021C8421FBD16
:10025C0010B500F04FF94042013010BD10B500F060
:10026C00BDF9002801DB002010BD012010BDC046E7
:10027C0010B500F0B3F9002801DD002010BD0120FD
:10028C0010BDC04610B500F05DF9002801DC00205F
:10029C0010BD012010BDC04610B500F053F9002868
:1002AC0001DA002010BD012010BDC0469E2110B502
:1002BC00C905041CFFF7F0FF002803D1201C00F037
:1002CC009FFB10BD9E21201CC90500F0D1F900F048
:1002DC0097FB80231B069C466044F2E7F0B54F4623
:1002EC004646D6464502C0B547000C1C6D0A3F0E6B
:1002FC00C60F002F66D0FF2F6CD00023EA0080259C
:10030C0099469A46ED0415437F3F60026100430A0B
:10031C009846090EE40F002948D0FF2910D08022FE
:10032C00D800D2040243904600207F394A4633005D
:10033C007F1A02436C4992008A586340DBB297469D
:10034C00002B6DD10220FF3F33E00023984626009E
:10035C00454682465346022B00D17FE0032B00D149
:10036C0094E0012B17D038007F3000285FDD6B073D
:10037C0004D00F232B40042B00D004352B0103D5C4
:10038C0038005A4B80301D40FE2867DCAD016D0AE9
:10039C00C0B202E01E0000200025C0052843F6076D
:1003AC003043E0BCBA46B146A846F0BD002B2BD179
:1003BC0001204A4633004E49024392008A5863405A
:1003CC00DBB29746002D13D104239946033B00273B
:1003DC009A469AE7002D05D108239946063BFF273C
:1003EC009A4692E70C239946093BFF279A468CE7DD
:1003FC00280000F061FB7627431F9D4000237F42BD
:10040C0099469A463F1A80E7180000F055FB424681
:10041C00431F76219A404942091A9046002085E7ED
:10042C00FF21032082E71E00FF200025B5E70123F2
:10043C001B1A1B2BAFDC9E372900BD40D9406A1E0E
:10044C0095410D436B0704D00F232B40042B00D098
:10045C0004356B0144D5012000259EE7FF200025C3
:10046C009BE780250026FF20ED0396E700239846A6
:10047C008020C003054209D04346034206D14546BD
:10048C0005436D022600FF206D0A86E78020C0031D
:10049C0005436D02FF206D0A7FE741466A01480162
:1004AC00824219D21B210025013F012614006D0048
:1004BC005200002C01DB904201D8121A354301394D
:1004CC000029F3D1501E824138007F301E001543A5
:1004DC00002800DD4BE7AAE71A210125121AE4E7F0
:1004EC00AD0100206D0A58E7B4300008FFFFFFF79C
:1004FC00F430000870B542004E024C0045026D0A03
:10050C00120EC30F760A240EC90FFF2A0FD0FF2C30
:10051C0011D00120A24200D070BDB542FCD18B425B
:10052C000DD0002AF8D12800451EA841F4E701207F
:10053C00002DF1D1EBE70120002EEDD1E9E70020F1
:10054C00EAE7C046F0B5420046024D024C00C30F2C
:10055C00760A120E6D0A240EC80FFF2A1FD0FF2C2C
:10056C0010D0002A1FD171427141002C01D1002DF5
:10057C001ED000290ED183421ED00221581E0840E5
:10058C000138F0BD002D26D1002AF4D17142714101
:10059C000029F0D00028F4D101204042F1E7002ED0
:1005AC0019D1FF2CEED0002CE5D1002DE3D1E4E7DE
:1005BC000020002EE5D0E0E7A24205DCEADBAE42EB
:1005CC0002D8E7D30020DCE74142414148420221F6
:1005DC0008400138D5E702204042D2E7F0B542008E
:1005EC0046024D024C00C30F760A120E6D0A240E01
:1005FC00C80FFF2A0DD0FF2C0FD0002A23D1714237
:10060C007141002C0FD1002D0DD10020002E14D0E3
:10061C000DE0002E10D1FF2C15D1002D0CD1002A8D
:10062C0003D171427141002908D1834210D00221BB
:10063C00581E0840013800E00220F0BD0028FCD113
:10064C0001204042F9E7002CEFD1002DEDD1EEE76F
:10065C00A24205DCF2DBAE4202D8EFD30020ECE77D
:10066C00414241414842022108400138E5E7C04679
:10067C00F0B54646D6464F4643025B0ADA0094462E
:10068C004A02C0B54400560A051CB046240E4E0062
:10069C0092091F0020009246ED0F360EC90FFF2E57
:1006AC0000D17FE0012251408D4251D0A21B9146D6
:1006BC00002A00DC7EE0002E00D199E0FF2C00D156
:1006CC008CE080235246DB041A4392464A460123AF
:1006DC001B2A08DC53462021D340891A52468A40F3
:1006EC00511E8A4113436246D31A5A0100D4F3E0D7
:1006FC009B019E09300000F0DFF9053886408442EA
:10070C0000DDF7E03200041B20200134E240041B22
:10071C00A64033005E1EB341002413435A0704D095
:10072C000F221A40042A00D004335A0100D4D6E018
:10073C00621CFE2C00D1DAE09B015F0AD0B2C0052E
:10074C003843ED072843E0BCBA46B146A846F0BD95
:10075C00A21B9146002A63DD002E00D199E0FF2CEC
:10076C003CD080235246DB041A4392464A4601236E
:10077C001B2A08DC53462021D340891A52468A4052
:10078C00511E8A41134363445A0100D4A4E001343E
:10079C00FF2C00D1ABE0012297491A405B080B40BB
:1007AC001343BBE7002A32D08D4235D0FF22524290
:1007BC009146A1444A46002A51D0301B002C00D04F
:1007CC009CE06346002B00D1DFE00138002800D10B
:1007DC00F7E0FF2E00D099E00D004346002B00D12E
:1007EC0085E08027FF031F437F02FF207F0AA6E7D7
:1007FC005246002A74D0012252429046C1444A46C5
:10080C00002A00D1C8E0FF2C00D05FE7E6E7012208
:10081C005140A94200D049E7FF2252429146A144DF
:10082C004A46002A43D0311B002C00D18CE0FF2E0D
:10083C0000D192E080236246DB041A4394460123E4
:10084C001B2909DC202063466246CB40411A8A40B2
:10085C001100481E81410B433400534494E7FE229F
:10086C00661C324264D1002C00D082E06346002B1F
:10087C0000D1ABE05346002B00D160E763465246F3
:10088C009B1A5A0100D4AAE0634652460D00D31AB3
:10089C0044E75246002A23D0012252429046C144DA
:1008AC004A46002A75D0FF2C00D05FE796E7FE265B
:1008BC000134264253D1002872D16346002B00D15B
:1008CC0093E05346002B00D139E7634400245A01CE
:1008DC0002D54A4A013413405A0700D020E7DB08FE
:1008EC00FF2C00D17AE75B025F0AE0B227E7FF201A
:1008FC00002724E7414B241A33400FE7FF2E00D189
:10090C006AE780236246DB041A43944601231B28C2
:10091C0009DC202463466246C340201A8240100042
:10092C00441EA041034352460D003400D31ADCE6AA
:10093C00634652469E1A730117D4002E00D0D9E696
:10094C00002500200027FAE66346002B44D001392D
:10095C0000294CD0FF2E00D071E743463EE7FF2C18
:10096C00C5D0524662445308B6E763460D00D61A0A
:10097C00C0E66246002A16D15346002B00D02BE766
:10098C0080270025FF20FF03D9E60D0043463400E5
:10099C00A6E753466344F7E6634652469B1AA4E621
:1009AC006246002AD9D05246002A00D116E780228E
:1009BC00D203134200D111E74046104200D00DE79C
:1009CC000AE752460D003400D31A8EE65346002B2C
:1009DC0008D00D004746B2E64346340080E7002BB2
:1009EC0000D079E700250027A9E64746A7E653463D
:1009FC0034006344C8E6C046FFFFFF7DFFFFFFFBEA
:100A0C0041024200C30F490A0020120E7E2A03D96C
:100A1C009D2A02D9094A9818704780200004014386
:100A2C00952A07DC9620821AD1404842002BF3D13C
:100A3C000800F1E7963A9140F7E7C046FFFFFF7FC9
:100A4C0070B5051E0ED000F037F89E2304001B1A5B
:100A5C00962B0CDC082801DD083CA5406D026D0AC4
:100A6C00D8B201E000200025C005284370BD992BA9
:100A7C0009DD020029001B3291404A1E91410522DA
:100A8C00121AD5400D43052C01DD621F954029003B
:100A9C00084E31406A0709D00F202840042805D0A1
:100AAC0004314A0102D59F2331401B1B89014D0A99
:100ABC00D8B2D9E7FFFFFFFB1C2101231B0498428E
:100ACC0001D3000C10391B0A984201D3000A0839D3
:100ADC001B09984201D30009043902A2105C40188A
:100AEC007047C0460403020201010101000000002E
:100AFC0000000000C36810B58B829BB28B61500064
:100B0C000C00FFF79DFF0023E0616360A36010BD44
:100B1C00F8B5C46905000021201CFFF7B3FB0028C1
:100B2C0018D02B002E331F78002F13D0211C0A480D
:100B3C00FFF7D4FBFFF7BAFB2B6B0400C61A380087
:100B4C00642160432E61FFF7EBFAA419AC62241AFE
:100B5C0028626C62F8BDC0460024744970B506006A
:100B6C0003782E3605003478002B10D00021C06994
:100B7C00FFF788FB00280AD02C352B78A34202D92A
:100B8C000134347005E0A34203D2013CF9E7002C98
:100B9C00FBD170BD0B7870B50C001500002B04D187
:100BAC000B002E331B78002B5FD022002F321378D2
:100BBC00012B0ED1013313700023636023002E33FD
:100BCC001B78052B0FD8012D06D100228021C900DE
:100BDC0005E0012BF2D870BD0022802109012448C8
:100BEC0000F076FFF7E75E2B03D9012D3BD10122F4
:100BFC00ECE76368A28A2169206BD318091863603B
:100C0C008B4221D95A1AA260626A93420ED9A16A08
:100C1C008B420BD2A1695218012D1AD1934216D9CD
:100C2C0000228021C900124800F052FFA268636ABA
:100C3C009A42D0D9A16A8A42CDD2A1695B18012D02
:100C4C000FD19A42C1D8D2E7A1685218DBE72A002B
:100C5C00E7E7934203D9002280210901E3E701224F
:100C6C00FAE79A42B8D80122B7E74B608B60B2E73B
:100C7C000004004870B5802401231F49E4000C8750
:100C8C000C000B700023423423700A000C002C3231
:100C9C0070341370237019480C00194A08634A63A6
:100CAC0048678A6780200A00583423800C007C3205
:100CBC00000110800A000D0072342380114C863222
:100CCC00CB8513704435200032224B608B608B62D5
:100CDC008B824B620B622B708B64CB64CB668B6606
:100CEC004B66FFF707FF290032222000FFF702FFB7
:100CFC00200001F04DFB70BD8000002014050000A9
:100D0C0000040048A002002070B500F073FC13280A
:100D1C000DD9074D2800FFF7FBFE064C2000FFF70E
:100D2C00F7FE2800FFF71AFF2000FFF717FF70BD32
:100D3C0080000020C400002030B5102595B008229A
:100D4C00002109A802F09BF92A000021684602F054
:100D5C0096F92A00002104A802F091F91A230893AD
:100D6C0080231B02119380231B0301241293002365
:100D7C000C950E9508A80E3D0B940D940F941095A0
:100D8C00139300F0FFFE002801D072B6FEE7072394
:100D9C0002900390210068460093019501F01CF924
:100DAC00002801D072B6FEE7069004A8049401F066
:100DBC00A7F9002801D072B6FEE715B030BD0000CF
:100DCC00F0B5802791B000F0F9FBFFF7B5FF1422C6
:100DDC00002109A802F053F98020D44B3F035A6933
:100DEC0080023A435A615A6900243A400092009AB0
:100DFC00596901250143596180215A69C902024090
:100E0C0090200192019A5A69C0050A435A615B69A4
:100E1C0000220B400293C649029B00F059FE0022AF
:100E2C00C449C54800F054FE81210122C248C901C1
:100E3C0000F04EFEC021902001228901C00500F077
:100E4C0047FEE023BD481B0209A909930A940B94A1
:100E5C0000F088FD90200326B94B09A9C005099321
:100E6C000C960A950B9400F07DFD9020B54B09A9CA
:100E7C00C00509930A950B940C9400F073FDB24BCA
:100E8C00AD4809A909930C960A950B9400F06AFDDC
:100E9C008123A9485B0009A909930A940B9400F0DB
:100EAC0061FDAA4BA44809A909930A950B940C94CB
:100EBC0000F058FD8123DB01099311239E4809A9F9
:100ECC000A930C960B9400F04DFD80231B020993A2
:100EDC00882399485B0309A90A930B9400F042FDFF
:100EEC00C02290201123920109A9C0050A930992EE
:100EFC000C960B9400F036FD8020400200F0FCFDB7
:100F0C0038000C2700F0F8FD22002900072000F023
:100F1C0097FC072000F0BEFC3A00210009A802F063
:100F2C00AEF88B4E8B4B3000336004237361C223BD
:100F3C00FF33F361B461731D7460B460F4603561A8
:100F4C003462DC77B56200F05BFBA04201D072B674
:100F5C00FEE78024062309906401300009A90A9455
:100F6C000B9300F0F5FB002801D072B6FEE73000C1
:100F7C0009A9099500F0ECFB031E01D072B6FEE73F
:100F8C001F257548754A83600260754A8361456008
:100F9C00C26001F01BFB031E01D072B6FEE7714864
:100FAC00714A83600260714A83614560C26001F0DE
:100FBC000DFB031E01D072B6FEE76D486D4A8360CF
:100FCC000260E1225202C36003618361C361036268
:100FDC0043624260476101F0F3FF031E01D072B619
:100FEC00FEE76548654A8460026096229201426081
:100FFC008022D200C360026147618361C3610362D6
:10100C00436201F0DDFF061E01D072B6FEE701005F
:10101C00102205A802F033F80822310003A802F0D0
:10102C002EF81C22310009A802F029F8544D554B1A
:10103C0028002B6002236B60534BAE60EB602E617B
:10104C00AE6101F0C3FA002801D072B6FEE72800A9
:10105C0005A9059401F0B4FB002801D072B6FEE797
:10106C00280001F0DBFA002801D072B6FEE700235D
:10107C001026280003A90396049301F041FC021EDC
:10108C0001D072B6FEE760230A900B900D9009A96F
:10109C002800099301F02AFB002801D072B6FEE764
:1010AC000422280009A901F021FB041E01D072B60C
:1010BC00FEE7280000F048F93448354B1F27036041
:1010CC00642347608460C3600461846101F07EFA2C
:1010DC00002801D072B6FEE72E482F4B0360042384
:1010EC0043602E4BC360836000F01AFD051E01D0D7
:1010FC0072B6FEE70100320009A801F0C0FF082219
:10110C00290005A801F0BBFF254C264B20002360CD
:10111C00254B6760A560E36025616561A56101F001
:10112C0055FA002842D072B6FEE7C04600100240C5
:10113C0030C90000793E0000000400480008004857
:10114C00104900002080000041020000383C0000E3
:10115C00E802002000240140D401002000100040CF
:10116C001B06000028030020001400403F0E000066
:10117C0050010020003801401C02002000440040B7
:10118C000801002000040040FF050000A002002020
:10119C00002000407000002000300040FF0F0000D5
:1011AC002800002000400140307500008023200002
:1011BC005B0109A9099301F003FB002801D072B669
:1011CC00FEE7069005A92000059601F099FB002882
:1011DC0001D072B6FEE7FFF74DFDFFF795FDFCE77A
:1011EC0001200A4B82B099690143996180219A6967
:1011FC00490502400092009ADA690A43DA61DB6918
:10120C000B400193019B02B07047C0460010024096
:10121C0010B5040088B01422002103A801F02FFFA0
:10122C00114B22689A421CD18020104B8000996986
:10123C000143996180219A69890202400192019AC5
:10124C005A6990200A435A615B69C0050B400293AE
:10125C00029B032303930493002303A9059300F03B
:10126C0081FB08B010BDC0460024014000100240B4
:10127C007FB503682E4A93420AD102202D4AD169C8
:10128C000143D161D36903400193019B07B000BDB9
:10129C00294A934211D11020264AD1690143D161C8
:1012AC00D36900220340029301301100029B00F02D
:1012BC00C7FA112000F0EEFAE8E7204A93420FD16A
:1012CC0020201C4AD1690143D161D369002203401B
:1012DC0003930E381100039B00F0B2FA1220E9E7D9
:1012EC00174A934210D18020124A4000D169014321
:1012FC00D161D369022103400493ED380022049B91
:10130C0000F09EFA1320D5E70E4A9342BED18020FE
:10131C00084A40029169014391619369022103409B
:10132C00059314200022059B00F08AFA1420C1E7D3
:10133C000004004000100240001000400014004067
:10134C00002000400040014010B5040086B014227B
:10135C00002101A801F093FE0E4B22689A4217D18E
:10136C0080200D4A8002516901435161536901A9E2
:10137C0003400093009BC0230193BE3B902002933B
:10138C000023C005039304930133059300F0EAFA9C
:10139C0006B010BD000400400010024030B504003F
:1013AC008BB01422002105A801F069FE23682D4A98
:1013BC0093422CD180202C4BC0019969002501430C
:1013CC00996180219A69890202400192019A5A69B5
:1013DC0090200A435A615B6903240B400293029BE1
:1013EC00C023DB000593022305A90693C005013B2E
:1013FC0009930795089400F0B5FA1B202A002100E8
:10140C0000F01EFA1B2000F045FA0BB030BD174A55
:10141C009342FAD18022144B9202D9699020114345
:10142C00D961D96900241140039103995969C00508
:10143C00114359615B6905A91A400492049B0C2362
:10144C0005930A3B069301330893023B09930794D7
:10145C0000F088FA1C202200210000F0F1F91C2079
:10146C00D1E7C04600380140001002400044004063
:10147C00FEE7FEE77047704710B500F0AFF810BDFF
:10148C00064B80201900012210B52F317333000256
:10149C000A701A7000F024FB10BDC04680000020BA
:1014AC0010B5024800F0A6FF10BDC046D4010020C4
:1014BC0010B5024800F09EFF10BDC0462803002066
:1014CC0010B5074C012220000649FFF763FB0222EE
:1014DC0020000549FFF75EFB200000F08BFF10BDDC
:1014EC00A002002080000020C400002010B502489B
:1014FC0000F080FF10BDC0462800002010B5024847
:10150C0001F06AFA10BDC0465001002010B5024827
:10151C0001F062FA10BDC0461C02002070470000AA
:10152C000D4885460D480E490E4A002302E0D4585A
:10153C00C4500433C4188C42F9D30B4A0B4C00230F
:10154C0001E013600432A242FBD3FFF7E7FF01F086
:10155C0069FDFFF735FCFEE700800020000000204D
:10156C000C0000207C3100080C00002074030020CB
:10157C00FEE7000070B50500FA200D4B80001978CD
:10158C00FEF7CEFD0B4B01001868FEF7C9FD00F00D
:10159C008DF904000120002C09D1032D07D8023845
:1015AC002200290000F04CF92000034B1D6070BD97
:1015BC000400002000000020080000201023064A30
:1015CC0010B5116803200B431360FFF7D3FFFFF72F
:1015DC0007FE002010BDC04600200240034A044B09
:1015EC0011681B785B1813607047C04670030020AD
:1015FC0004000020014B18687047C046700300209F
:10160C00F8B504000120002C00D180E0A36B002B66
:10161C0006D122003432E36320001370FFF7F8FD8B
:10162C00A36BDB0600D587E02368042299680800C9
:10163C001040114200D07FE0A26B424911400222BF
:10164C000A430321A2639A680A40012A05D119684A
:10165C0011420ED1DA6812040BD41821DA688A43CD
:10166C00A1680A43DA601969626889008908114324
:10167C001961DA6834490A40DA60257E627EAD036E
:10168C00D2031543A26AA17E013A561EB24116033B
:10169C00E2684F03154322692F43022A00D104202C
:1016AC00621DD27F52003A4332430243E07E01284E
:1016BC0004D100292CD1802149020A43C220E169BE
:1016CC00FF30814202D0206A01430A438020D9684E
:1016DC0040051143D960E16A814202D0481E0628B8
:1016EC0007D8072558692940A84358615869014310
:1016FC005961DB6815490B40934211D1002003223C
:10170C00E063A36B93431A0001231343A363F8BD57
:10171C002021A56B2943A163E16B0843E063CDE76E
:10172C001222A36B012093431A0010231343A363CB
:10173C00E36B0343E363EAE71023A26B012013433B
:10174C00A363E4E7FDFEFFFF1902FEFFE7FF3F8303
:10175C00F0B50023040085B00393343423780200E1
:10176C00C66A0220012B2FD0013820701368042781
:10177C009D68AC463D40019565463D4250D10F6891
:10178C002A4D3A00AC464D68B840103A654537D002
:10179C009D6A284398628020400586420FD0013E06
:1017AC00062E0CD907205D6989680540A94206D030
:1017BC005D69014085435D615D6929435961012A79
:1017CC0004D900200023237005B0F0BD184B8021F4
:1017DC001A68102F12D0C9030A431A60102FF0D1C7
:1017EC00144B15491868FEF79BFC0A2343430393DB
:1017FC00039B002BE5D0039B013BF8E70904EBE7C7
:10180C00996A81439962012ADBD853425A410849AB
:10181C0053420A4A08689B059B1803400B60D0E7AB
:10182C002023916B0B439363CCE7C046011000005F
:10183C00082701400000002040420F00FFFFBFFFBF
:10184C0030B5FF2503242A000440E400A24089019E
:10185C002940D243A140C3B200280ADBC0240B4B61
:10186C0080088000C018A40003591A40114301518C
:10187C0030BD0F200340083B05489B089B001B18FC
:10188C00D86902401143D961F2E7C04600E100E09B
:10189C0000ED00E0002805DB1F2318401E3B8340B1
:1018AC00014A13607047C04600E100E08022431EED
:1018BC005204012093420DD2C021074A07485360BD
:1018CC00036A09061B021B0A0B4303620020072351
:1018DC00906013607047C04610E000E000ED00E03F
:1018EC0030B5851CEB7F441C022B05D0042383638D
:1018FC0000230120E37730BD0E2103681A688A4368
:10190C001A600122196891431960016CC36B1000B5
:10191C00884058600020EA77E077ECE770B5841CCB
:10192C00E37F022B04D004238363033B180070BDB8
:10193C000E210368056C1A688A431A600122196823
:10194C00914319601100A940C36B5960E2770024E0
:10195C008318DC77426B1300A242E7D09047230038
:10196C00E4E700000023F0B587B00A681400DC40FF
:10197C0001D107B0F0BD012514009D402C4001940D
:10198C002A4200D195E04A685E00944603226446E0
:10199C0022400324B440E4430294541E012C2AD860
:1019AC008768029C2740CC68B4403C438460446800
:1019BC000127AC432500644624093C409C402C4341
:1019CC004460C568029C25408C68B4402C43C460BC
:1019DC00022A12D1DC080725A4000419276A0394F3
:1019EC000F241D40AD00AC40A7430C69AC4027430D
:1019FC00039C276201E0032AE3D10468029DB240F4
:101A0C0025402C0014430460C0246246A4022242E8
:101A1C004FD00125284A90279469FF052C439461E7
:101A2C0092699C082A400592059A244AA400A4189D
:101A3C000F2202351D40AD00AA40A6689643002235
:101A4C00B8420CD01E4F0132B84208D01D4F0132A3
:101A5C00B84204D01C4F0132B84200D00232AA4026
:101A6C0067463243A260194A019C1668019DE44303
:101A7C003543FF0301D43500254067461560566891
:101A8C00019D3543BF0301D43500254067465560A1
:101A9C009668019D3543FF0201D435002540674609
:101AAC009560D568019E2E43BF0201D425402E00BF
:101ABC00D660013359E7C0460010024000000140D7
:101ACC000004004800080048000C004800040140D5
:101ADC00002A01D0816170478162FCE770470000E9
:101AEC00044B10B55A69104202D05861FFF7F6FF4B
:101AFC0010BDC0460004014037B5012506498C696C
:101B0C002C438C618A692A400192044A019B136818
:101B1C000343136037BDC046001002400000014073
:101B2C0070B504000120002C17D02368124A072539
:101B3C001A60124A1A6062685A60A2689A60FFF7CB
:101B4C0059FD06002368DA68100028402A4205D1A6
:101B5C001969E26891420CD01A6170BDFFF74AFD19
:101B6C00801B2728EED92368DB682B42EAD00320A0
:101B7C00F3E7034A1A60F0E7CCCC0000555500009F
:101B8C00AAAA0000F0B5040085B0002846D003686E
:101B9C00DB0730D402222368134200D081E0236893
:101BAC001B0700D5BAE023685B0700D5DDE023688E
:101BBC00DB061AD562690423B34D012A00D048E133
:101BCC00696B02270B436B636B6B1A436A63FFF7FA
:101BDC0011FD06006B6B3B4200D133E1F8216A6BBF
:101BEC00A3698A43DB0013436B63236A002B00D089
:101BFC0056E100202AE00C21A34D6A680A40042A11
:101C0C0006D06B680B40082B0AD16B68DB0307D539
:101C1C002B689B03BED56368002BBBD1012015E05C
:101C2C006368012B14D180232A685B0213432B6059
:101C3C00FFF7E0FC80270600BF022B683B42A9D1CE
:101C4C00FFF7D8FC801B6428F7D9032005B0F0BD42
:101C5C00002B16D12B688D4A802713402B602B68E4
:101C6C008B4ABF0213402B60FFF7C4FC06002B68A5
:101C7C003B4200D18EE7FFF7BDFC801B6428F6D9F0
:101C8C00E3E7052B05D180232A68DB0213432B6085
:101C9C00C9E72B687D4A13402B602B687C4A1340A4
:101CAC00C5E70C21784D6B680B4218D06B680B4064
:101CBC00082B00D16B68E2680123002A1DD02A682A
:101CCC00022713432B60FFF795FC06002B683B4261
:101CDC000BD1FFF78FFC801B0228F7D9B5E72B68D7
:101CEC00134202D0E368012B98D1F8212A682369AA
:101CFC008A43DB0013432B6051E72A6802279A437F
:101D0C002A60FFF777FC06002B683B4200D146E7C0
:101D1C00FFF770FC801B0228F6D996E7E2690123D5
:101D2C00594D002A10D06A6A022713436B62FFF7E1
:101D3C0061FC06006B6A3B4200D034E7FFF75AFCAB
:101D4C00801B0228F6D980E76A6A02279A436A62E6
:101D5C00FFF750FC06006B6A3B4200D123E7FFF70C
:101D6C0049FC801B0228F6D96FE780220021464DE2
:101D7C005205EB690091134208D1EB691343EB61F7
:101D8C00EB6913400393039B012300938027414E7F
:101D9C007F0033683B4206D0A368012B13D12A6A1B
:101DAC0013432B6230E033683B433360FFF722FC74
:101DBC00019033683B42EFD1FFF71CFC019BC01A2A
:101DCC006428F6D941E70122002B14D12B6A022793
:101DDC0093432B622B6A033293432B62FFF70AFC6B
:101DEC0006002B6A3B4216D0FFF704FC2A4B801BE3
:101DFC009842F6D929E7052B16D1296A013B0B43EA
:101E0C002B622B6A1A432A62FFF7F4FB02270600A7
:101E1C002B6A3B420FD0009B012B00D0C7E6EB692D
:101E2C001E4A1340EB61C2E62B6A934304222B62D9
:101E3C002B6A9343B5E7FFF7DDFB174B801B9842EA
:101E4C00E6D902E7FFF7D6FB801B022800D8C1E6D3
:101E5C00FBE6053203D16A6B9A436A63BEE66A6B92
:101E6C000227134301226B636B6B93436B63FFF786
:101E7C00C1FB06006B6B3B4200D1B6E6FFF7BAFB29
:101E8C00801B0228F6D9E0E600100240FFFFFEFF9F
:101E9C00FFFFFBFF0070004088130000FFFFFFEF07
:101EAC000C20344A516815000140082947D0324AA9
:101EBC00022B32D12B68802713402B60FFF79AFB43
:101ECC000600BF042B683B4221D10F22EB6A80260F
:101EDC009343E26AB6041343EB62616AA36A6A68CD
:101EEC000B4326490A4013436B6080232A685B042A
:101EFC0013432B60FFF77EFB04002B68334200D0AA
:101F0C0077E6FFF777FB001B0228F6D99DE6FFF773
:101F1C0071FB801B0228D5D997E62B6880261340CD
:101F2C002B60FFF767FB0400B6042B68334200D12B
:101F3C005FE6FFF75FFB001B0228F6D985E6180069
:101F4C00012B00D182E680215368606A4902D26A73
:101F5C001940814200D061E60F210A40E16A8A42B1
:101F6C0000D05BE6F02292031340A26A934200D1A8
:101F7C003FE653E600100240FFFFFFFEFFFFC2FFEB
:101F8C0030B589B010221049684604AC01F06EF8E7
:101F9C0010220E49200001F069F80C220C494B6804
:101FAC001A40082A0DD1CA6A0F2168469B0C0B40B7
:101FBC000A40C55CA15C0748FEF7B2F8684309B05B
:101FCC0030BD0448FBE7C0464C3100085D310008C9
:101FDC000010024000127A00F7B505000E00002830
:101FEC0001D10120FEBD0122374C236813408B42E6
:101FFC001CD329688B0722D4CB072FD4012322684A
:10200C001A40B24251D82B68304C5B0754D4FFF7BE
:10201C00B7FF63682E4A1B061B0FD35CD8402D4BB1
:10202C0018600320FFF7A6FA0020DBE72368934330
:10203C000B432360236813408B42D2D1D9E7234A48
:10204C004B0704D5E0235068DB0003435360F020BA
:10205C0053688343A86803435360CDE71B4F6A68FA
:10206C003B68012A19D19B03BBD503217B688B43A9
:10207C0013437B60FFF7BEFA01900C237A681A4079
:10208C006B689B009A42B9D0FFF7B4FA019BC01A57
:10209C00114B9842F1D90320A4E7022A02D19B01EB
:1020AC00E3D49EE79B07E0D49BE722689A43226027
:1020BC0022681A42A7D094E76368084A1340EA687A
:1020CC0013436360A3E7C0460020024000100240A7
:1020DC00343100080000002088130000FFF8FFFFD7
:1020EC00044B054A5B685B055B0FD35C034A1068C5
:1020FC00D840704700100240443100080000002016
:10210C00F0B50368050085B0DB032AD580220021D9
:10211C00384C5205E3690091134208D1E36913432B
:10212C00E361E36913400393039B0123009380272E
:10213C00314E7F0033683B4228D0226AC023110005
:10214C009B002E4E19401A4232D1236A1E406B68F6
:10215C001E43009B2662012B03D1E369284A1340DE
:10216C00E3612A68D30706D5032022490B6B83430E
:10217C00A86803430B630020930617D510211D4A52
:10218C00136B8B43E9680B4313630FE033683B43DA
:10219C003360FFF72FFA019033683B42CDD1FFF744
:1021AC0029FA019BC01A6428F6D9032005B0F0BDAA
:1021BC006A6813408B42C8D08023226A206A1100BF
:1021CC005B0203432362236A0E48314003402362BF
:1021DC002162D307B9D5FFF70DFA07000222236A53
:1021EC001342B2D1FFF706FA074BC01B9842F5D940
:1021FC00DBE7C0460010024000700040FFFCFFFF10
:10220C00FFFFFFEFFFFFFEFF881300000122036AB0
:10221C0070B593430362036A4468856972329543CF
:10222C000A681543022293438A681343144A904266
:10223C0008D0144EB04205D0134EB04202D0134E0B
:10224C00B04216D10826B343CE6833430426B343B9
:10225C00904208D00B4A904205D00B4A904202D0D3
:10226C000A4A904205D10A4A8E6922404C6934438D
:10227C0014434A68446085614263036270BDC04682
:10228C00002C014000400140004401400048014046
:10229C00FFFCFFFF70B57325036A174A13400362F6
:1022AC00036A4268C469AC430D682C43134D2B4040
:1022BC008D682D022B43124DA8420ED1114D1D409D
:1022CC00CB681B022B43104D2B40104D4E69154013
:1022DC008A69324312012A4308E00D4DA842F4D01A
:1022EC000C4DA842F1D00C4DA842EED042604A6889
:1022FC00C461C263036270BDFFFEFFFFFFFDFFFF01
:10230C00002C0140FFF7FFFFFFFBFFFFFFCFFFFF9C
:10231C00004001400044014000480140036A144A57
:10232C0030B513400362026A124C4368C5692540FC
:10233C000C6824022543104C22408C682403224351
:10234C000E4CA04208D00E4CA04205D00D4CA04221
:10235C0002D00D4CA04204D10C4C23404C69A4017A
:10236C00234343604B68C5610364026230BDC046C1
:10237C00FFEFFFFFFF8CFFFFFFDFFFFF002C014093
:10238C00004001400044014000480140FFBFFFFFF6
:10239C000200030001203D321178814218D1022144
:1023AC0011701B68DA680243DA600C4A934205D05C
:1023BC000B4A934202D00B4A93420AD107219A68E6
:1023CC0000200A40062A03D0012219680A431A6029
:1023DC0070471A68104318600020F9E7002C014080
:1023EC000004004000400140704770477047704740
:1023FC00704770470222036810B519690400114236
:10240C000ED0D96811420BD0053A1A61043202770A
:10241C009B699B0700D179E0FFF7E9FF0023237745
:10242C00042223681969114210D0D96811420DD0C9
:10243C00093A1A61073222779A69C0239B0020005F
:10244C001A4269D0FFF7D3FF0023237708222368B1
:10245C00196911420ED0D96811420BD0113A1A6188
:10246C000D322277DB6920009B075BD0FFF7BFFFA3
:10247C0000232377102223681969114210D0D968E0
:10248C0011420DD0213A1A6119322277DA69C02330
:10249C009B0020001A424BD0FFF7A9FF00232377A3
:1024AC00012223681969114207D0D968114204D05E
:1024BC00033A20001A61FFF798FF802223681969FC
:1024CC00114208D0D968114205D0023AFF3A2000D7
:1024DC001A6100F044FA402223681969114207D0AE
:1024EC00D968114204D0813A20001A61FFF781FFAC
:1024FC00202223681969114207D0D968114204D0EF
:10250C00413A20001A6100F029FA10BDFFF76EFF66
:10251C002000FFF76DFF81E7FFF768FF2000FFF752
:10252C0067FF91E7FFF762FF2000FFF761FF9FE76E
:10253C00FFF75CFF2000FFF75BFFAFE71C4A10B50D
:10254C000368904202D01B4CA04208D17024A343D4
:10255C004C68234390420ED0164CA0420BD0164C24
:10256C00A04208D0154CA04205D0154CA04202D078
:10257C00144CA04203D1144C2340CC682343802438
:10258C00A3434C69234303608B68C3620B6883626B
:10259C00904208D0094B984205D0094B984202D082
:1025AC00084B984201D10B6903630123436110BDB1
:1025BC00002C01400004004000200040004001407D
:1025CC000044014000480140FFFCFFFF70B50400CF
:1025DC000120002C21D025003D352B78DAB2002BC0
:1025EC0005D123003C3320001A70FEF741FE022374
:1025FC002B702068211DFFF7A1FF22000123002072
:10260C00463213704534083A137053709370D3707C
:10261C0013715371937123702B7070BD70B50400DE
:10262C000120002C21D025003D352B78DAB2002B6F
:10263C0005D123003C3320001A70FFF7D5FE02238E
:10264C002B702068211DFFF779FF22000123002049
:10265C00463213704534083A137053709370D3702C
:10266C0013715371937123702B7070BD1022036A18
:10267C0070B593430362026A164D436884692C401B
:10268C000D682D022C432025AA438D682D012A4369
:10269C00114DA8420FD18025AA431500CA6812011A
:1026AC002A434025AA430D4D4E691D408B69334387
:1026BC009B002B4308E00A4DA842F4D0094DA842D8
:1026CC00F1D0094DA842EED043604B68846183631E
:1026DC00026270BDFF8CFFFF002C0140FFF3FFFF77
:1026EC00004001400044014000480140F8B507009B
:1026FC003C373B7804000E0015000220012B0AD059
:10270C0001383870082A3DD006D8002A17D0042A80
:10271C0027D000233B70F8BD0C2AFAD12068FFF7B4
:10272C00FDFD802223681201D9690A43DA61DA6956
:10273C001C490A40DA613269D96912022FE020681B
:10274C00FFF764FD0822236899690A4304219A6102
:10275C009A698A439A619A6931690A439A6100209D
:10276C00D7E72068FFF782FF80222368120199695E
:10277C000A439A619A690B490A409A6132699969CC
:10278C001202EAE72068FFF785FD04212368DA6965
:10279C001543DD61DA698A43DA61DA6931690A4322
:1027AC00DA61DCE7FFFBFFFF30B58468034D0A43B9
:1027BC001B022C4013432343836030BDFF00FFFFFB
:1027CC00F8B5050002233C35040028781A000128CE
:1027DC001DD0260001273D362F7033702068464AE5
:1027EC008368134083600B68602B57D033D8402B21
:1027FC0000D16BE015D8202B0DD00AD8102219006F
:10280C00914308D03A000123337000232B70100041
:10281C00F8BD302BF6D1702182688A43134307220E
:10282C0016E0502BEED14A68CB68016A046A1B0192
:10283C00BC43F02704628469BC4323430A24A143AC
:10284C000A43836102627022836893431A00572300
:10285C001343836016E080225201944600226345A4
:10286C00D1D08022920193420ED03A00702BCAD163
:10287C00CB684A688968FFF797FF772322689168CD
:10288C000B4393600022BEE7CB684A688968FFF768
:10289C008BFF80232268DB019168F1E710244B68E1
:1028AC00CA68016A154FA1430162846912033C4056
:1028BC002243A024016A82617022A1431B010B43B5
:1028CC000362836893431A006723C1E74A68CB68A5
:1028DC00016A046A1B01BC43F02704628469BC438F
:1028EC0023430A24A1430A43836102627022836852
:1028FC0093431A004723ABE78800FFFFFF0FFFFF4E
:10290C0070B5040002223C34257803001000012D20
:10291C001CD01D0070263D352A701B6858689A68BB
:10292C00B0430E68304358600948834205D00948CB
:10293C00834202D00848834204D1802049688243F4
:10294C000A439A60012300202B70207070BDC04692
:10295C00002C0140000400400040014070477047CB
:10296C0030B5EFF31084012282F310880168124D08
:10297C000B682B400B6084F31088EFF3108482F308
:10298C00108801688B6893438B6084F31088036E06
:10299C0093420AD1EFF3108183F31088102402685C
:1029AC001368A343136081F310882023C3670023AB
:1029BC000366436630BDC046DFFEFFFF70477047BD
:1029CC00406A0023020010B55A321380083A138073
:1029DC00FFF7F5FF10BD70470168F8B5CB699F4D47
:1029EC00040008688A682B420BD12022134200D1C4
:1029FC007EE0104200D17BE0636E2000002B6DD195
:102A0C006DE00126964D32400540154300D16FE034
:102A1C00251D334205D0C70503D50E62EF6F3E432B
:102A2C00EE670226334206D0002A04D00E62EF6F06
:102A3C00B6193E43EE670426334206D0002A04D072
:102A4C000E62EF6F023E3E43EE670826334207D01C
:102A5C00202707403A4303D00E62EA6F1643EE6715
:102A6C0080221201134206D0460104D50A622022AC
:102A7C00E96F0A43EA67EA6F002A30D0202213423A
:102A8C0006D0104204D0636E002B01D02000984772
:102A9C002268EB6F4027966828223E4013402000A6
:102AAC001E4321D0FFF75CFF23689B683B4217D085
:102ABC00EFF31081012383F3108822689368BB43E2
:102ACC00936081F31088206F002809D0654B436315
:102ADC00FEF724FF002802D0206F436B9847F8BD07
:102AEC002000FFF76CFFFAE7FFF769FFEE67F6E7E8
:102AFC00226E012A00D090E010252B4200D18CE0F0
:102B0C00284200D189E00D628B68402118000840F2
:102B1C000B424CD0206F03685B689BB2002BDED05D
:102B2C002600583637889F42D9D927005A373B8020
:102B3C008369202B31D0EFF3108782F31088206843
:102B4C00494D03682B40036087F31088EFF310871F
:102B5C0082F31088206883689343836087F310881E
:102B6C00EFF3108782F31088206883688B438360AF
:102B7C0087F310882023E36700232366EFF310818B
:102B8C0082F31088226812351368FF35AB4313604B
:102B9C0081F31088206FFEF7A3FE23005A331B88A5
:102BAC003188C91A89B22000FFF715FF97E7260074
:102BBC005A36338831889BB2002900D18FE7210027
:102BCC0058310988C91A89B2002900D187E7EFF377
:102BDC00108782F310882668244D33682B403360AD
:102BEC0087F31088EFF3108782F310882668B36898
:102BFC009343B36087F3108820236066E3672066F5
:102C0C00EFF3108082F31088226832351368FF3599
:102C1C00AB43136080F31088C5E78022134203D0C6
:102C2C00104201D0A36EE8E64022134200D156E7D1
:102C3C00104200D153E7EFF31080012383F3108887
:102C4C0021680B6893430B6080F310882023A367E3
:102C5C0000232000A366FFF7B1FE40E70F08000039
:102C6C0020010004CD290008FFFEFFFFDFFEFFFF5F
:102C7C0070B504002569A168026829436569C369B8
:102C8C0029431068434D1943284001431160516892
:102C9C004148256A0140E06801435160A169906890
:102CAC0029433E4D2840014391603D498A4215D14C
:102CBC0003213C4A126B0A40013A022A1DD83A49B8
:102CCC00885C80221202934243D1082860D8FDF719
:102CDC001DFA1D5F295F265F5F5F2A0033498A4218
:102CEC000BD033498A4208D032498A4205D0324946
:102CFC008A4202D031498A424AD18022120293423E
:102D0C0004D0FFF7EDF9002804D02DE0FFF7E8F927
:102D1C00031E08D1002000236366A36670BDFFF775
:102D2C002FF9F5E7264B5800636861685B08C018FB
:102D3C00FDF7F6F9234982B2103A03048A4227D8E8
:102D4C000F221B03904380B222685B0F1843D060A4
:102D5C00E0E708281CD8FDF7CFF9D41B191B161B6C
:102D6C001B1B050080200002636861685B08181853
:102D7C00FDF7D6F980B20200124B103A9A4207D8EE
:102D8C002368D860C6E7FFF7FBF8BCE70C48EBE715
:102D9C000120C0E7F369FFEFFFCFFFFFFFF4FFFF58
:102DAC0000380140001002406E3100080044004021
:102DBC0000480040004C004000500040001401400E
:102DCC0000127A00EFFF0000436A30B5DA0706D52F
:102DDC000168284C4A682240846A22434A609A0758
:102DEC0006D50168244C4A682240C46A22434A60D2
:102DFC005A0706D50168214C4A682240046B2243CD
:102E0C004A601A0706D501681D4C4A682240446B7B
:102E1C0022434A60DA0606D501681A4C8A682240B9
:102E2C00846B22438A609A0606D50168164C8A6820
:102E3C002240C46B22438A605A0610D50168134D98
:102E4C004A68046C2A4022434A608022520394420E
:102E5C0005D14A680E4C2240446C22434A601B0642
:102E6C0006D502680B4953680B40816C0B435360C9
:102E7C0030BDC046FFFFFDFFFFFFFEFFFFFFFBFF66
:102E8C00FF7FFFFFFFEFFFFFFFDFFFFFFFFFEFFF06
:102E9C00FFFF9FFFFFFFF7FFF7B5802704000D0032
:102EAC00160001933F012268D3692B405B1B5942EA
:102EBC004B41B34201D0002028E0089B0133F3D0F2
:102ECC00FEF798FB019BC01A089B984201D8002B77
:102EDC001DD1EFF31080012282F3108821681E4D62
:102EEC000B682B400B6080F31088EFF3108082F39B
:102EFC00108821688B6893438B6080F310882023A3
:102F0C00A367E3670023032074342370FEBD042100
:102F1C0023681A680A42C6D0DA693A42C3D01F62E3
:102F2C00EFF31080012282F3108821680A4D0B68A0
:102F3C002B400B6080F31088EFF3108082F3108825
:102F4C0021688B6893438B6080F310882023221DAB
:102F5C00A367E367D367D5E75FFEFFFF73B5002672
:102F6C000400031DDE67FEF745FB236805001B68A4
:102F7C001B0716D423681B685B070AD580210F4BEF
:102F8C000022009320002B00C903FFF785FF0028C7
:102F9C0012D120230020A367E367206674342070CD
:102FAC000BE08021054B32000093890303002000C5
:102FBC00FFF772FF0028DDD0032076BDFFFFFF0175
:102FCC0010B5041E01D1012010BD836F002B04D15C
:102FDC00020074321370FEF7E1F9242301212268F8
:102FEC00A367136820008B431360FFF741FE012891
:102FFC00E9D0636A002B02D02000FFF7E5FE2368BE
:10300C0007495A6820000A4008215A609A688A4386
:10301C009A60012219680A431A60FFF79FFFD3E7F1
:10302C00FFF7FFFF70B500260C4D0D4C641BA41070
:10303C00A64209D1002600F02BF80A4D0A4C641B5D
:10304C00A410A64205D170BDB300EB5898470136C9
:10305C00EEE7B300EB5898470136F2E774310008FD
:10306C00743100087431000878310008002310B561
:10307C009A4200D110BDCC5CC4540133F8E7030074
:10308C008218934200D1704719700133F9E70000A0
:10309C00F8B5C046F8BC08BC9E467047F8B5C046AB
:0830AC00F8BC08BC9E46704709
:1030B400A604000832040008A00300085A0300080C
:1030C400A00300086E040008A00300085A030008C7
:1030D40032040008320400086E0400085A03000891
:1030E4006003000860030008600300087C04000813
:1030F4003204000832040008A00300085603000844
:10310400A00300086E040008A0030008560300088A
:1031140032040008320400086E0400085603000854
:1031240060030008600300086003000878040008D6
:103134000000000000000000010203040607080963
:103144000000000001020304020304050607080945
:103154000A0B0C0D0E0F10100001020304050607E4
:1031640008090A0B0C0D0E0F1000040802000000E1
:04317400E50000086A
:04317800BD0000088E
:0C317C0000127A000100000004000000B6
:040000050800152DAD
:00000001FF
